:020000040800F2
:1000000000A00020B9510008491000084B1000085A
:100010004D1000084F1000085110000800000000AB
:100020000000000000000000000000005310000865
:100030005510000800000000571000085910000873
:100040000952000809520008095200080952000824
:100050000952000809520008095200080952000814
:100060000952000809520008095200080952000804
:10007000095200080952000861100008E110000848
:10008000095200080952000809520008F11000083E
:10009000011100080952000809520008095200081D
:1000A00009520008095200080952000809520008C4
:1000B00011110008551100087111000809520008BB
:1000C00009520008095200080952000809520008A4
:1000D000C911000809520008D91100080952000886
:1000E0000952000809520008095200080952000884
:1000F0000952000809520008095200080952000874
:10010000000000000000000000000000095200088C
:100110000952000809520008095200080952000853
:100120000952000809520008095200080952000843
:1001300009520008095200080000000000000000F9
:100140000952000809520008095200080000000086
:10015000000000000000000000000000000000009F
:1001600000000000000000000952000809520008C9
:10017000095200080000000000000000000000001C
:08018000000000000952000814
:1001880010B5054C237833B9044B13B10448AFF3C9
:1001980000800123237010BD7C01002000000000B6
:1001A8006452000808B5034B1BB103490348AFF379
:1001B800008008BD00000000800100206452000893
:1001C80030B59FB0002417941A940F94109411948A
:1001D800129413943C222146684605F037F803230D
:1001E80014934FF4A0231593169401231893102306
:1001F800199302251B954FF480331C934FF4E01399
:100208001D9314A803F0B0FA0F230F9310951194BF
:100218004FF480631293139429460FA803F0E0FD6E
:10022800054B00930394059407940E94684603F0D5
:10023800D9FE1FB030BD00BF2A00020008B503F088
:100248006FFAFFF7BDFF00F061F800F051F900F018
:1002580071F900F085FA00F0DFFA00F025FB00F0F4
:100268006BFB00F0C9F900F001FC00F01BFC00F08A
:10027800B1FC1C4802F0F4FB1B4802F0F1FB4022E1
:100288001A491B4802F05EF902E01A4B1B7853B971
:100298004FF48071184804F09FF80128F5D1154BE8
:1002A80001221A70F1E7154B1B788BB9144802F03C
:1002B800D7FB01224FF40061124804F094F80F4A6A
:1002C800137883F0010313700A4B00221A70DFE7DA
:1002D8000B4802F0D1FB00224FF40061094804F0FA
:1002E80082F8ECE744060020040600209C01002068
:1002F8005C0500209801002000080048DD0100206E
:100308008406002000100048704700002DE9F043E3
:100318008DB000240794089409940A940B946E4BAA
:100328005A6942F400125A615A6902F400120192A1
:10033800019A5A6942F400225A615A6902F4002269
:100348000292029A5A6942F480025A615A6902F486
:1003580080020392039A5A6942F400325A615A6938
:1003680002F400320492049A5A6942F480225A61D3
:100378005A6902F480220592059A5A6942F4801259
:100388005A615B6903F480130693069BDFF8588172
:1003980022464FF60871404604F025F822464FF4ED
:1003A800E2614FF0904004F01EF84C4F22464FF4A3
:1003B8008051384604F017F8DFF830912246FF21C3
:1003C800484604F010F837230793454B08930994DF
:1003D80007A9404603F036FF4FF608730793012636
:1003E800089609940A9407A9404603F02BFFC023F6
:1003F800079303250895099407A9404603F022FFAF
:1004080042F2BF0307930895099407A9384603F0F9
:1004180019FF40F2546307930895099407A93148D6
:1004280003F010FF07960894099407A94FF090402D
:1004380003F008FF48F20A0307930895099407A9EF
:100448004FF0904003F0FEFE4FF4E26307930896E6
:1004580009940A9407A94FF0904003F0F3FE40F284
:100468002733079308950994A8F5406807A94046DB
:1004780003F0E8FE4FF4406307930894099407A932
:10048800404603F0DFFE4FF47F4307930895099435
:1004980007A9484603F0D6FE4FF440730793089423
:1004A800099407A9384603F0CDFE4FF4805307930B
:1004B800089609940A9407A9384603F0C3FEFF2357
:1004C8000793089609940A9407A9484603F0BAFEC8
:1004D8000DB0BDE8F08300BF0010024000080048DE
:1004E800000012100014004800100048000C0048DA
:1004F80000B583B00E4B5A6942F001025A615B693C
:1005080003F001030193019B002211460E2004F021
:10051800A3F80E2004F0D4F8002211460F2004F0AE
:100528009BF80F2004F0CCF803B05DF804FB00BF83
:100538000010024008B51248124B0360124B43608A
:10054800002383600122C260036143618361C36148
:10055800036201F03EFF50B90021094801F097FFFE
:1005680040B90021064801F0C0FF30B908BDFFF7C7
:10057800CBFEF1E7FFF7C8FEF3E7FFF7C5FEF5E7A7
:1005880088040020005400400E09002010B588B0EF
:100598000023039304930593069307930268134B70
:1005A8009A4201D008B010BD114C636943F480230E
:1005B8006361636903F480230193019BC023039360
:1005C800122304930123059303230693042307931B
:1005D80003A9084803F036FEE36943F40013E36116
:1005E800E36903F400130293029BDBE70054004025
:1005F800001002400004004808B50E480E4B036086
:100608004FF440734360102383600323C3604FF4A7
:10061800007303614BF6803343610823836102232F
:10062800C3610123036202F0C1F800B908BDFFF7F6
:100638006BFEFBE75C05002000380040F0B589B090
:1006480000230393049305930693079302683D4B95
:100658009A4201D009B0F0BD044603F5EC33DA69DB
:1006680042F48042DA61DA6902F480420092009A28
:100678005A6942F480225A615A6902F4802201922E
:10068800019A5A6942F400225A615B6903F4002313
:100698000293029B4FF470430393022704970025AB
:1006A8000595032606960523079303A9264803F014
:1006B800C9FD4023039304970595069606230793DF
:1006C80003A9224803F0BEFD2148224B0360456080
:1006D80085608023C3604FF4007303614FF40063A7
:1006E800436120238361C56103F0C2FE18BB184B28
:1006F800A3635C621848194B03601023436000230E
:1007080083608022C2604FF4007202614FF400627D
:10071800426120228261C36103F0AAFE70B90E4BC8
:1007280063635C6200221146242003F095FF2420B5
:1007380003F0C6FF8EE7FFF7E7FDD8E7FFF7E4FD14
:10074800EDE700BF003800400004004800080048FA
:10075800D40400204400024018050020580002403C
:1007680008B51048104B03604FF4827343600023B0
:1007780083604FF44072C260036143614FF40072BA
:1007880082610822C2610362436283620721C162F7
:100798000363426302F0DAF800B908BDFFF7B4FD5D
:1007A800FBE700BFA00500200030014000B589B07C
:1007B8000023039304930593069307930268154B4C
:1007C8009A4202D009B05DF804FB03F560439A69C8
:1007D80042F480529A619A6902F480520192019A15
:1007E8005A6942F400325A615B6903F40033029398
:1007F800029BE0230393022304930023059303231E
:1008080006930523079303A94FF0904003F01AFDC0
:10081800D8E700BF0030014000B58DB00023089331
:1008280009930A930B9303930493059306930793F1
:100838000093019302931B484FF080420260092203
:10084800426083604A22C2600361836102F058FA01
:10085800D8B94FF48053089308A9124802F076FAE1
:10086800B0B9042303930023049303A90D4802F0AD
:1008780035FB80B90023009302936946094802F0CA
:100888004DFB58B90DB05DF804FBFFF73DFDE0E7FF
:10089800FFF73AFDE5E7FFF737FDEBE7FFF734FD34
:1008A800F0E700BF8406002000B58DB00023089350
:1008B80009930A930B930393049305930693079361
:1008C8000093019302931A481A4A0260092242606F
:1008D80083604A22C2600361836102F011FAD8B9C9
:1008E8004FF48053089308A9114802F02FFAB0B9C1
:1008F800042303930023049303A90D4802F0EEFA9E
:1009080080B90023009302936946094802F006FB68
:1009180058B90DB05DF804FBFFF7F6FCE0E7FFF708
:10092800F3FCE5E7FFF7F0FCEBE7FFF7EDFCF0E79A
:10093800440600200004004000B58DB00023089351
:1009480009930A930B9303930493059306930793D0
:100958000093019302931B481B4A026041F61F4211
:100968004260836040F2E732C2600361836102F053
:10097800C7F9D8B94FF48053089308A9114802F071
:10098800E5F9B0B9042303930023049303A90D48A0
:1009980002F0A4FA80B9002300930293694609483B
:1009A80002F0BCFA58B90DB05DF804FBFFF7ACFCD7
:1009B800E0E7FFF7A9FCE5E7FFF7A6FCEBE7FFF7A1
:1009C800A3FCF0E7040600200008004000B585B04D
:1009D8000368B3F1804F08D0214A934219D0214AC5
:1009E800934229D005B05DF804FB03F50433DA69B6
:1009F80042F00102DA61DB6903F001030193019B14
:100A0800002211461C2003F027FE1C2003F058FE8C
:100A1800E8E7154BDA6942F00202DA61DB6903F0B4
:100A280002030293029B002211461D2003F014FECC
:100A38001D2003F045FED5E70B4BDA6942F00402AE
:100A4800DA61DB6903F004030393039B0022114678
:100A58001E2003F001FE1E2003F032FEC2E700BF95
:100A680000040040000800400010024008B50B4890
:100A78000B4B03604FF4E133436000238360C36092
:100A880003610C2242618361C3610362436202F025
:100A9800B8FC00B908BDFFF737FCFBE7C406002027
:100AA800004C004008B50B480B4B03604FF4E13392
:100AB800436000238360C36003610C224261836149
:100AC800C3610362436202F09CFC00B908BDFFF7F2
:100AD8001BFCFBE73407002000440040F0B58BB056
:100AE8000023059306930793089309930368344AF0
:100AF800934204D0334A934224D00BB0F0BD324B1A
:100B0800DA6942F40022DA61DA6902F4002200921A
:100B1800009A5A6942F400225A615B6903F400237F
:100B28000193019B4FF4406305930223069300232E
:100B38000793032308930523099305A9234803F082
:100B480081FBDAE7204BDA6942F40032DA61DA69CC
:100B580002F400320292029A5A6942F400325A614F
:100B68005A6902F400320392039A5A6942F48022C5
:100B78005A615B6903F480230493049B042305935F
:100B88000227069700240794032608960725099547
:100B980005A94FF0904003F055FB102305930697E5
:100BA80007940896099505A9094803F04BFB2246C6
:100BB8002146262003F050FD262003F081FD9CE706
:100BC800004C00400044004000100240000800486B
:100BD8000004004808B500220F49104803F0C6FD7C
:100BE80070B90F490D4803F0D8FD60B90D490B489D
:100BF80004F09AFA50B9094803F0D6FD48B908BD7F
:100C0800FFF782FBEDE7FFF77FFBEFE7FFF77CFBE2
:100C1800F1E7FFF779FBF2E700000020A4070020C6
:100C28006C00002050000020022805D8DFE800F002
:100C380005040200012070470220704702681D4B1E
:100C48009A4200D0704730B589B01B4C636943F4B1
:100C580000336361636903F400330193019B4FF42C
:100C6800C053039302230493002505950323069399
:100C78000E23079303A94FF0904003F0E3FAE369CA
:100C880043F40003E361E36903F400030293029B66
:100C98002A462946132003F0DFFC132003F010FD39
:100CA8002A462946142003F0D7FC142003F008FD37
:100CB80009B030BD005C00400010024008B500F5E6
:100CC8005D71D0F8A40303F087FD08BD08B5C1EB3A
:100CD800C10300EB8303D3F8DC21D0F8A40303F0AD
:100CE800A8FD08BD08B5C1EBC10300EB83039A6BEF
:100CF800D0F8A40303F0D3FD08BD08B5D0F8A403C9
:100D080003F057FE08BD10B504468368022B09D1CD
:100D18000121D4F8A40303F03AFED4F8A40303F0A5
:100D280017FE10BDFFF7F0FAF2E7000010B5044611
:100D3800D0F8A40303F02EFEA36923B1024A136975
:100D480043F00603136110BD00ED00E008B5D0F8CC
:100D5800A40303F028FE08BD10B504461D48C0F8DA
:100D6800A443C4F820021C4B0360082343600223F9
:100D78008360036100238361036200F071FA30BB72
:100D8800182300221146D4F8200201F0D9FA58237A
:100D980000228021D4F8200201F0D2FAC0230022D8
:100DA8008121D4F8200201F0CBFA4FF48873002295
:100DB8000121D4F8200201F0C3FA4FF48073002215
:100DC8008221D4F8200201F0BBFA002010BDFFF701
:100DD8009BFAD5E7C8090020005C004008B5D0F8A8
:100DE800200200F091FAFFF71FFF08BD10B5144666
:100DF8001A462346D0F8200200F0A2FAFFF714FFA3
:100E080010BD08B5D0F8200200F072FCFFF70CFF07
:100E180008BD08B5D0F8200201F0BDF9FFF704FFBE
:100E280008BD08B5D0F8200201F015FAFFF7FCFE5E
:100E380008BDD0F8203211F0800F08D101F07F01F1
:100E4800C1EBC10103EB810191F8CE01704701F0BC
:100E58007F01C1EBC10103EB810191F82A007047C2
:100E680008B5D0F8200200F055FAFFF7DDFE08BDFE
:100E780008B5D0F8200200F00EFEFFF7D5FE08BD39
:100E880008B5D0F8200200F048FDFFF7CDFE08BDF8
:100E980008B5D0F8200200F0F5FD08BD00487047FD
:100EA800E00100207047704712230B80004870470C
:100EB8001C00002004230B800048704730000020ED
:100EC8000023934217D230B40BE0373401F81340B3
:100ED80000015C00013400250D550133DBB293425B
:100EE80007D2040FB0F1204FEFD2303401F813408D
:100EF800EEE730BC7047704738B50A4B18680433C2
:100F08001C6804331B68C01800D138BD064D082280
:100F1800A91CFFF7D5FF042205F112012046FFF7AF
:100F2800CFFFF2E7ACF7FF1F3400002008B51A2303
:100F38000B80FFF7E1FF014808BD00BF3400002027
:100F480008B50A4628B90549054803F09FFF034834
:100F580008BD0249024803F099FFF8E7700D002028
:100F68007C52000810B50A46034C2146034803F09A
:100F78008DFF204610BD00BF700D00209452000860
:100F880008B50A4628B90549054803F07FFF034814
:100F980008BD0249024803F079FFF8E7700D002008
:100FA800A852000808B50A4628B90549054803F0BB
:100FB8006DFF034808BD0249024803F067FFF8E7E0
:100FC800700D0020B45200080020704700207047C0
:100FD80010B50146044C204604F0B5F8204604F04C
:100FE800CFF8002010BD00BFA407002010B5064CA4
:100FF80000220649204604F09EF80549204604F0E0
:10100800A2F8002010BD00BFA40700207013002024
:10101800700F0020094BD3F81832D3F814320BB1F3
:101028000120704710B5054C0A460146204604F0D9
:1010380082F8204604F08DF810BD00BFA4070020F8
:101048007047FEE7FEE7FEE7FEE770477047704728
:1010580008B502F077FB08BDF8B5194B1B78E3B962
:10106800184C194E04F14007354620686168A2689B
:10107800E3680FC510342E46BC42F5D1032000F0BA
:10108800CDF80F4A137883F0010313700F4B012238
:101098001A700F4803F073FAF8BD0A4C0D4E04F1AC
:1010A8004007354620686168A268E3680FC51034B8
:1010B8002E46BC42F5D1042000F0B0F8E1E700BFAD
:1010C800800400209C01002000040020DC01002096
:1010D800D40400204004002008B5024803F04FFA69
:1010E80008BD00BF1805002008B5024800F0C5FF7C
:1010F80008BD00BFC809002008B5024800F0BDFFC0
:1011080008BD00BFC809002008B50B4B1B784BB1C0
:101118000A4B1B7853B11E210948FFF77BFF064B8A
:1011280000221A70074801F0C2FC08BD1E210648BB
:10113800FFF770FFF3E700BFDC0100208004002008
:1011480000040020840600204004002008B5044A5A
:10115800137883F001031370024801F0A8FC08BD5E
:10116800810400204406002010B5104C4FF4806123
:10117800204603F031F90E4B18704FF400612046F9
:1011880003F02AF90B4B18700B4B1B78092B06D070
:101198000133094A1370094801F089FC10BD012088
:1011A80000F03CF8044B00221A70F4E700040048F1
:1011B8009A010020990100208204002004060020E2
:1011C80008B5024801F096FA08BD00BF5C0500208A
:1011D80008B5024802F0CEF908BD00BF3407002068
:1011E80000B583B00C4B9A6942F001029A619A6982
:1011F80002F001020092009ADA6942F08052DA6144
:10120800DB6903F080530193019B072003F012FA76
:1012180003B05DF804FB00BF0010024008B50138B8
:10122800032808D8DFE800F002080E144FF4007114
:101238000A4803F0DDF808BD4FF40061074803F0E1
:10124800D7F8F8E74FF48071044803F0D1F8F2E7D3
:101258004FF48061014803F0CBF8ECE70010004838
:1012680000284FD010B5044690F87133BBB1032362
:1012780084F8713300226068904215D9C2EBC2032A
:1012880004EB8303012183F8291083F82820002127
:1012980083F82B1059639963D9630132EBE780F81F
:1012A8007033FFF7CBFCE2E7002211E0C2EBC20388
:1012B80004EB8303002183F8CD1183F8CC2183F854
:1012C800CF11C3F8D811C3F8DC11C3F8E01101320B
:1012D8009042EBD822680123A2F84030226800200F
:1012E800A2F840002268A2F844002268A2F8500040
:1012F80022684FF43F41A2F8401084F8240084F893
:10130800713310BD0120704708B50121FFF7CBFDEF
:10131800002008BD90F87033012B0FD0012380F80E
:10132800703341B903688022A3F84C20002380F869
:1013380070331846704780F82410F7E7022070478A
:1013480030B44DB2002D1EDB01F07F04C4EBC404A1
:10135800A40004F5E4740444043401F07F0121700E
:10136800E90F6170E260E37090F87033012B00F0D0
:10137800BD81012380F87033E378032B18D8DFE8A8
:1013880003F00A80657201F07F04C4EBC404A40072
:1013980028340444E1E70268217832F821309BB20E
:1013A80023F4EC4323F0700343F4007322F8213054
:1013B8000168227831F8223023F0F0031B051B0D59
:1013C800134343F4004343F0800321F82230A37A07
:1013D800002B40F0BD806378002B60D0A2880368A2
:1013E800B3F850102578ED0015FA81F103EB4103AD
:1013F80022F00102A3F800240268217832F8213093
:1014080013F0400F0BD032F8213023F0F0031B0506
:101418001B0D43F4004343F0C00322F82130026857
:10142800217832F821309BB223F4E04323F04003C3
:1014380083F0200343F4004343F0800322F8213073
:10144800002380F87033184630BC70470268217852
:1014580032F821309BB223F4EC4323F070039BB2A3
:1014680022F82130A4E70268217832F821309BB2B3
:1014780023F4EC4323F0700343F4C06322F82130D3
:1014880096E70268217832F821309BB223F4EC43C6
:1014980023F0700343F4806322F8213088E7A188A1
:1014A8000268B2F850302578ED0015FA83F304335A
:1014B80002EB430321F00102A3F800240268B2F80A
:1014C80050302178C90011FA83F3063302EB430345
:1014D800E2683E2A31D9C2F34F1112F01F0F01D131
:1014E800013989B26FEAC1616FEA5141A3F800146A
:1014F8000268217832F8213013F4804F0BD032F88B
:10150800213023F0F0031B051B0D43F4404343F047
:10151800800322F821300268217832F821309BB20A
:1015280023F4804323F0700383F4405343F40043CF
:1015380043F0800322F8213082E7C2F34F0112F012
:10154800010F01D0013189B28902A3F80014CFE755
:101558000268217832F8213023F4F8731B051B0D3B
:1015680043F4014343F0800322F82130E288036802
:10157800B3F850102578ED0015FA81F103EB41031B
:1015880022F00102A3F8002421890268B2F8503041
:101598002578ED0015FA83F3043302EB430321F0B9
:1015A8000102A3F800246378002B50D10268217847
:1015B80032F8213013F4804F0BD032F8213023F069
:1015C800F0031B051B0D43F4404343F0800322F84E
:1015D80021300268217832F8213013F0400F0BD007
:1015E80032F8213023F0F0031B051B0D43F40043B0
:1015F80043F0C00322F821300268217832F8213004
:1016080023F0F0031B051B0D43F4004343F0C00314
:1016180022F821300268217832F821309BB223F475
:10162800804323F0700383F4405348F280052B4332
:1016380022F821300268217832F821309BB223F455
:10164800E04323F040032B4322F82130F8E60268F8
:10165800217832F8213013F4804F0BD032F8213042
:1016680023F0F0031B051B0D43F4404343F08003B4
:1016780022F821300268217832F8213013F0400F27
:101688000BD032F8213023F0F0031B051B0D43F477
:10169800004343F0C00322F821300268217832F871
:1016A800213023F0F0031B051B0D43F4404343F0A6
:1016B800800322F821300368217833F8212092B280
:1016C80022F4E04222F0400248F280052A4323F83F
:1016D80021200268217832F821309BB223F480431C
:1016E80023F070032B4322F82130A9E60220ABE651
:1016F8004AB2002A43DB01F07F03C3EBC3039B001C
:1017080003F5E4730344043301F07F011970D20F29
:101718005A7090F87023012A00F0FD8030B401223D
:1017280080F870239A7A002A54D15A787AB30168DB
:101738001C7831F8242012F0400F0BD031F8242007
:1017480022F0F0021205120D42F4004242F0C002EB
:1017580021F824200268197832F821309BB223F44A
:10176800E04323F0400343F4004343F0800322F8AE
:101778002130002380F87033184630BC704701F0E0
:101788007F03C3EBC3039B0028330344BCE7016812
:101798001C7831F8242012F4804F0BD031F8242023
:1017A80022F0F0021205120D42F4404242F080028B
:1017B80021F824200268197832F821309BB223F4EA
:1017C800804323F0700343F4004343F0800322F87E
:1017D8002130CEE75A78002A4ED101681C7831F8BA
:1017E800242012F4804F0BD031F8242022F0F0028C
:1017F8001205120D42F4404242F0800221F82420E2
:1018080001681C7831F8242012F0400F0BD031F811
:10181800242022F0F0021205120D42F4004242F098
:10182800C00221F8242001681C7831F8242022F015
:10183800F0021205120D42F4004242F0C00221F8F3
:10184800242001681D7831F8252092B222F48042C4
:1018580022F0700248F28004224321F82520026811
:10186800197832F821309BB223F4E04323F0400387
:10187800234322F821307CE701681C7831F82420C2
:1018880012F4804F0BD031F8242022F0F002120518
:10189800120D42F4404242F0800221F824200168EF
:1018A8001C7831F8242012F0400F0BD031F8242096
:1018B80022F0F0021205120D42F4004242F0C0027A
:1018C80021F8242001681C7831F8242022F0F00245
:1018D8001205120D42F4404242F0800221F8242001
:1018E80001681D7831F8252092B222F4E04222F0F6
:1018F800400248F28004224321F825200268197822
:1019080032F821309BB223F4804323F07003234341
:1019180022F821302DE70220704730B401F07F0112
:10192800C1EBC10400EB8404C4F8DC21C4F8E03145
:101938000022C4F8E42184F8CD2184F8CC11D4F82D
:10194800D821934245D9C1EBC10400EB84049B1A0A
:10195800C4F8E031C1EBC10300EB830393F8D6313F
:10196800002B4AD10468B4F85030C1EBC10500EB34
:10197800850595F8CC51ED0015FA83F3063304EB91
:1019880043033E2A2ED9C2F34F1412F01F0F01D180
:10199800013CA4B26FEAC4646FEA5444A3F800445B
:1019A8000268C1EBC10100EB810191F8CC1132F85A
:1019B80021309BB223F4804323F0700383F4405317
:1019C80043F4004343F0800322F82130002030BC68
:1019D8007047C1EBC10200EB82020024C2F8E0416B
:1019E8001A46B7E7C2F34F0412F0010F01D00134D1
:1019F800A4B2A402A3F80044D2E7C1EBC10300EBF0
:101A0800830393F8CD314BBB0468B4F85030C1EB75
:101A1800C10500EB850595F8CC51ED0015FA83F367
:101A2800063304EB43033E2A0DD9C2F34F1412F0D8
:101A38001F0F01D1013CA4B26FEAC4646FEA544499
:101A4800A3F80044ACE7C2F34F0412F0010F01D031
:101A58000134A4B2A402A3F80044A1E7012B9FD14A
:101A68000468B4F85030C1EBC10500EB850595F862
:101A7800CC51ED0015FA83F3063304EB4303A3F8C6
:101A880000248DE701F07F01C1EBC10100EB81016A
:101A9800B1F8E4017047F8B5054601F07F04C4EBDE
:101AA800C40100EB81018A63CB6300220A6401222E
:101AB80081F8292081F828404F6BBB424DD9DB1BA8
:101AC800CB63C4EBC40305EB830393F83230002BDC
:101AD8004BD02868C4EBC40305EB830393F8283084
:101AE80030F8233013F0400F58D0C4EBC40305EB93
:101AF80083031A8EC4EBC40605EB8606BBB2B16B32
:101B080000F03BFC96F82930002B4DD12A6896F856
:101B1800281032F8213023F0F0031B051B0D43F485
:101B2800004343F0C00322F821302A68C4EBC40400
:101B380005EB840494F8281032F821309BB223F482
:101B4800E04323F0400383F0300343F4004343F0C1
:101B5800800322F821300020F8BDC4EBC40200EB5A
:101B680082020021D1631F46ABE7BFB2C4EBC406B3
:101B780005EB86063B46B28DB16B286800F0FDFB8D
:101B88002A68B2F8503096F82810C90011FA83F381
:101B9800023302EB4303A3F80074C6E7C4EBC403A3
:101BA80005EB8303DA8DA5E7012BBED12A68C4EBC8
:101BB800C40305EB830393F8281032F8213023F08F
:101BC800F0031B051B0D43F4404343F0800322F848
:101BD8002130AAE770B582B005460023ADF804307D
:101BE800B3E103889BB223F4E14323F070039BB273
:101BF80003802A68B2F8503095F82810C90011FA05
:101C080083F3023302EB4303B3F80034C3F309034D
:101C18002B64AA6B1344AB6300212846FFF762F8D4
:101C280095F82430002B00F09081EB6B002B40F0EE
:101C38008C8195F824302A6843F08003A2F84C3050
:101C4800002385F8243080E1B0F8503095F8CC2195
:101C5800D20012FA83F3063300EB4303B3F80034DF
:101C6800C3F30903C5F8E431B5F8D02105F55D7172
:101C780000F097FB2A68138823F070031B051B0DDF
:101C880013802846FFF71AF85FE1B5F8D021D5F898
:101C9800DC1100F086FBD5F8E421D5F8DC311344DB
:101CA800C5F8DC3190E1C2F34F0112F0010F01D009
:101CB800013189B28902A3F80014A2E130F8243076
:101CC8009BB2ADF80430BDF8043013F4004F36D1A0
:101CD800BDF8043013F0800F00F037812A6832F81D
:101CE80024309BB223F4E14323F070039BB222F823
:101CF8002430C4EBC40305EB830393F83230002B84
:101D080040F0CB802868B0F85030C4EBC40205EB33
:101D1800820292F82810C90011FA83F3023300EB0B
:101D28004303B3F80034C3F309031364002B00F032
:101D3800E8801146928D896B00F01FFBE1E030F8D6
:101D4800243023F070031B051B0D20F82430C4EB4E
:101D5800C40305EB830393F8D631FBB92868B0F8C0
:101D68005030C4EBC40205EB820292F8CC21D200B9
:101D780012FA83F3063300EB4303B3F80064C6F3A7
:101D88000906BEB3C4EBC40105EB81013346B1F8C3
:101D9800D021D1F8DC1100F004FB2BE02868C4EB5B
:101DA800C40305EB830393F8CC3130F8232012F4F5
:101DB800804F4ED0B0F85020DB0013FA82F3023384
:101DC80000EB4303B3F80064C6F30906AEBB2A6808
:101DD800C4EBC40305EB830393F8CC1132F821302C
:101DE80023F0F0031B051B0D43F4004343F0C0032D
:101DF80022F82130C4EBC40305EB8303D3F8E421B4
:101E08003244C3F8E421D3F8DC213244C3F8DC219E
:101E1800D3F8E0313BB1C4EBC40105EB8101D1F843
:101E2800D8118E422FD2C4EBC40305EB830393F879
:101E3800CC112846FEF74AFF4AE7C4EBC40105EB7C
:101E480081013346B1F8D221D1F8DC1100F0A9FAAA
:101E5800BDE7B0F85020DB0013FA82F3063300EB3D
:101E68004303B3F80064C6F30906002EAFD0C4EBF1
:101E7800C40105EB81013346B1F8D421D1F8DC1156
:101E880000F08FFAA3E7C4EBC40105EB810191F8D8
:101E9800CC112846FFF741FD1AE72868C4EBC403B4
:101EA80005EB830393F8283030F8232012F0400F15
:101EB80000F0BC80B0F85020DB0013FA82F3023344
:101EC80000EB4303B3F80034C3F30903C4EBC402C3
:101ED80005EB82021364002B40F0A2802A68C4EB51
:101EE800C40305EB830393F8281032F8213023F05C
:101EF800F0031B051B0D43F4404343F0800322F815
:101F080021302968B1F85020C4EBC40305EB8303E2
:101F180093F82800C00010FA82F2023201EB420264
:101F2800B2F80024C2F309021A64996B0A449A634E
:101F3800DB6B002B40F09480C4EBC40405EB8404F5
:101F480094F828102846FEF7CDFE2868B0F84430EB
:101F58009BB2ADF8063013F4004F00F08B80BDF84B
:101F6800064014F00F047FF4A9AEBDF8063013F054
:101F7800100F3FF436AE03889BB2ADF80430BDF8BD
:101F8800043013F4006F7FF45FAEBDF8043013F42F
:101F9800004FDAD0038823F070031B051B0D038064
:101FA8002868B0F8503095F8CC21D20012FA83F3A3
:101FB800063300EB4303B3F80034C3F30903C5F851
:101FC800E431002B7FF461AE00212846FEF77EFE47
:101FD8002A68B2F850309BB2063302EB4303D5F8B7
:101FE800D8213E2A7FF65FAEC2F34F1112F01F0FC1
:101FF80001D1013989B26FEAC1616FEA5141A3F891
:1020080000142A6813889BB223F4804323F07003DA
:1020180083F4405343F4004343F08003138094E770
:102028001146D28D896B00F0A8F957E7B0F8502017
:10203800DB0013FA82F3063300EB4303B3F80034F2
:10204800C3F30903C4EBC40205EB82021364002B3B
:102058003FF444AF1146128E896B00F08EF93DE7CC
:10206800C4EBC40405EB840494F828102846FFF751
:1020780012FD6AE7002002B070BD10B5044603687F
:10208800B3F8443013F4004F50D12368B3F8442018
:1020980012F4806F4DD12368B3F8442012F4804FB6
:1020A80003D04BF6FF72A3F844202368B3F844200A
:1020B80012F4005F03D04DF6FF72A3F844202368A2
:1020C800B3F8442012F4805F3FD12368B3F844206A
:1020D80012F4006F19D0B3F8402092B242F008020F
:1020E800A3F8402023684FF2FF72A3F84420226827
:1020F800B2F840309BB243F00403A2F840302368A2
:10210800B3F8443013F4805F39D02368B3F844201F
:1021180012F4007F37D12368B3F8442012F4807F8B
:1021280003D04FF6FF62A3F8442010BDFFF752FD1D
:10213800ABE74FF6FF32A3F844202046FEF7E3FD55
:1021480000212046FFF7E6F8A5E7B3F8402092B251
:1021580022F0040292B2A3F840202268B2F840307C
:102168009BB223F008039BB2A2F840302046FEF74A
:10217800EDFD23684EF6FF72A3F84420A5E720463C
:10218800FEF7D4FDC1E74FF6FF52A3F844202046DE
:10219800FEF7B3FDBFE790F87033012B59D010B4A8
:1021A800012380F870334AB2002A27DBC1EBC10350
:1021B8009B0003F5E4730344043301249C7001F08D
:1021C8007F011970D20F5A7001BB026832F82130B2
:1021D8009BB223F4804323F0400383F4805383F0BD
:1021E800100343F4004343F0800322F82130002316
:1021F80080F8703318465DF8044B704701F07F0390
:10220800C3EBC3039B0028330344D6E782B10268BB
:1022180032F821309BB223F4E04323F0400383F0EB
:10222800100343F4004343F0800322F82130DEE733
:10223800026832F821309BB223F4804323F0700304
:1022480083F4805343F4004343F0800322F82130A1
:10225800CDE70220704710B44AB2002A41DBC1EB37
:10226800C1039B0003F5E4730344043300249C700A
:1022780001F07F011970D20F5A7090F87023012A6B
:102288005CD0012280F870235A7892B301681C78D8
:1022980031F8242012F0400F0BD031F8242022F01E
:1022A800F0021205120D42F4004242F0C00221F879
:1022B80024200268197832F821309BB223F4E043D5
:1022C80023F0400383F0300343F4004343F08003DA
:1022D80022F82130002380F8703318465DF8044B4B
:1022E800704701F07F03C3EBC3039B00283303440B
:1022F800BCE701681C7831F8242012F4804F0BD019
:1023080031F8242022F0F0021205120D42F4404266
:1023180042F0800221F824200268197832F821302E
:102328009BB223F4804323F0700383F4405343F4B7
:10233800004343F0800322F82130CBE70220CDE7A9
:1023480011F0800F0BD001F07F01C1EBC1018900B2
:10235800283101445AB98A728B8000207047C1EB3A
:10236800C101890001F5E47101440431F2E7012259
:102378008A72CB801B0C0B81EFE710B45C1C6408DD
:1023880000EB420202F5806244B10B78487843EAD8
:10239800002322F8043B0231013CF5E75DF8044BC9
:1023A800704730B45C0800EB420000F580654CB122
:1023B80035F8042B084600F8022B120A4A70013C33
:1023C8000146F4E713F0010F01D02B880B7030BCE5
:1023D8007047002859D010B5044690F84130002BBA
:1023E80043D0242384F841302268136823F0010382
:1023F80013606368226823F070631361226893682E
:1024080023F400439360E368012B33D0A368226868
:1024180043F404439360E368022B31D02268536885
:1024280043F0007343F4004353602268D36823F4F5
:102438000043D360236962691343A169226843EAB0
:102448000123D360E369216A22680B431360226881
:10245800136843F00103136000206064202384F8AC
:102468004130206384F8420010BD80F84030FEF708
:102478008DF8B6E7A368226843F400439360CAE77F
:1024880023684FF400625A60C8E70120704790F84B
:102498004130DBB2202B24D190F84030012B22D0E0
:1024A800012380F84030242380F841300268136803
:1024B80023F0010313600268136823F48053136048
:1024C80002681368194311600268136843F0010336
:1024D8001360202380F84130002380F840301846EC
:1024E8007047022070470220704790F84130DBB2F5
:1024F800202B22D190F84030012B20D0012380F8E6
:102508004030242380F841300268136823F0010327
:1025180013600268136823F4706343EA01211160B1
:102528000268136843F001031360202380F84130E8
:10253800002380F840301846704702207047022078
:1025480070470000002959D010B582B004461346E0
:102558000A46002B54D090F83D10C9B2012952D137
:10256800C2620068C16901F00701032907D0C16987
:1025780001F00701052902D02386638603E05B008A
:102588009BB22386638694F83C30DBB2012B3CD0A7
:10259800012384F83C3000232364042384F83D306D
:1025A800A36B1B49D962A36B1A499962A36B1A4999
:1025B80019632168CB6903F44073B3F5407F17D0E2
:1025C800238E9BB20C31A06B01F07AFF2368DA6985
:1025D80012F4806F03D1DA6942F48062DA6122680A
:1025E800536843F001035360002084F83C0008E07E
:1025F800CB6801938B680193019BE1E70120704749
:10260800012002B010BD0220FBE70220F9E700BF5D
:10261800632600086F260008D5260008704708B50D
:10262800436A9A1C426202681B88D360438D9BB23E
:10263800013B9BB24385438D9BB203B108BD026841
:10264800536823F0A0031B041B0C5360012380F87C
:102658003D30FFF7E3FFF1E7704708B5406AFFF741
:10266800FBFF08BD704708B50346406A1B681B6836
:1026780013F0200F09D10268536823F00103536057
:1026880000234386012380F83D30FFF7EBFF08BDA8
:1026980008B50368DA68C36A991CC1621A80438E58
:1026A8009BB2013B9BB24386438E9BB203B108BDEC
:1026B8000268536823F060031B041B0C536001235A
:1026C80080F83D30FFF7CEFFF1E7704708B5406A64
:1026D8000268536823F0030353600023438543864D
:1026E800012380F83D30036C43F008030364FFF7CF
:1026F800ECFF08BD10B582B00446026893680193E8
:1027080090F83D30DBB2042B06D090F83D30DBB2B8
:10271800032B26D002B010BD019B13F0010F03D08C
:10272800536813F0400F19D1019B13F0400FF1D0FB
:1027380023685A6812F0200FECD05A6822F0600221
:102748001204120C5A60012384F83D30236C43F0C4
:10275800020323642046FFF7B8FFDBE7FFF798FF83
:10276800E2E7019B13F0020F03D0536813F0800FC8
:1027780019D1019B13F0080FCCD023685A6812F0C6
:10278800200FC7D05A6822F0A0021204120C5A6017
:10279800012384F83D30236C43F00403236420466E
:1027A800FFF793FFB6E7FFF73AFFE2E7002800F0EC
:1027B800C38070B590B00446022580F83D50FDF7FF
:1027C8003DFF2268D36923F47B6323F00F03D361B1
:1027D80023681D622368DD69ADB26369022B62D08C
:1027E800E368002B4BD101264FF400730193E36992
:1027F800012B46D000230C9301A801F0F3FB01F054
:10280800B7FA2369B3F5007F43D07601B0FBF6F041
:1028180000EB800043006069B3FBF0F305339BB223
:10282800464AA2FB0323DA08C3F3C001C1EBD30372
:10283800C3F34F030802991E89B2FD2901D900206C
:102848000223218A014320680B4303626168A06860
:10285800E668238B33439BB203439BB20B439BB283
:102868001D4345F400652368DD61236A012B1ED0F2
:1028780000202064012384F83D3010B070BD02268A
:10288800B2E74FF400030C9301A801F0ABFB2C480E
:10289800B7E7000A00EB800043006069B3FBF0F380
:1028A80005339BB2BCE7002210460223C3E7216828
:1028B800244B994224D04FF04021CB6923F47B6309
:1028C80023F00F03CB6121681E4B99421AD04FF0B9
:1028D80040230221196221681A4B994215D04FF002
:1028E8004020C16989B26368B3F5007F0FD0F3B1A6
:1028F800B3F5407F1ED0B3F5807F0AD1002208E0EF
:102908001149DAE7A3F58063E3E70F48E9E74FF4F5
:102918008072A568E668238B33439BB22B439BB236
:1029280013439BB20B4343F40063C361A0E74FF426
:102938008072EEE70022ECE701207047CDCCCCCCCA
:1029480000127A000038004000340040002858D0B7
:1029580010B504460023836290F85D30002B45D003
:10296800022384F85D302268136823F04003136063
:10297800E368B3F5E06F3ED90022B3F5706F04D079
:10298800B3F5E06F01D00021A162216B21B9B3F545
:10299800E06F33D9022323636368A1680B4321697D
:1029A8000B4361690B43A16901F400710B43E169B1
:1029B8000B43216A0B43A06A216803430B60638BB6
:1029C80003F00403616A0B43616B0B43E1680B433B
:1029D800216813434B602268D36923F40063D361F1
:1029E80000202066012384F85D3010BD80F85C303B
:1029F800FDF7DCFEB4E74FF48052BEE70123236302
:102A0800CAE70120704730B4036A056A25F001055A
:102A18000562846924F0F00444EA021423F00A03EE
:102A28000B438461036230BC704730B4056A25F0FB
:102A3800100505628469036A24F4704444EA023488
:102A480023F0A00343EA01138461036230BC70479A
:102A5800836823F0700341F00701194381607047D0
:102A68000268D36843F00103D3600268136843F037
:102A780001031360002070470268D36823F0010344
:102A8800D3600368196A41F21112114208D1196A18
:102A980040F24442114203D11A6822F001021A603E
:102AA800002070477047704770477047704710B5EF
:102AB800044603681A6912F0020F11D0DA6812F09E
:102AC800020F0DD06FF002021A6101230377036829
:102AD8009B6913F0030F79D0FFF7E6FF00232377F4
:102AE80023681A6912F0040F12D0DA6812F0040F82
:102AF8000ED06FF004021A610223237723689B69C2
:102B080013F4407F68D02046FFF7CEFF00232377D9
:102B180023681A6912F0080F12D0DA6812F0080F49
:102B28000ED06FF008021A61042323772368DB694B
:102B380013F0030F57D02046FFF7B6FF0023237783
:102B480023681A6912F0100F12D0DA6812F0100F09
:102B58000ED06FF010021A61082323772368DB690F
:102B680013F4407F46D02046FFF79EFF00232377CB
:102B780023681A6912F0010F03D0DA6812F0010F06
:102B88003FD123681A6912F0800F03D0DA6812F077
:102B9800800F3DD123681A6912F4807F03D0DA6868
:102BA80012F0800F3BD123681A6912F0400F03D04E
:102BB800DA6812F0400F39D123681A6912F0200F31
:102BC80003D0DA6812F0200F37D110BDFFF76BFF82
:102BD8002046FFF76AFF81E72046FFF764FF20469B
:102BE800FFF763FF92E72046FFF75DFF2046FFF7F8
:102BF8005CFFA3E72046FFF756FF2046FFF755FF87
:102C0800B4E76FF001021A612046FFF74BFFB8E7FF
:102C18006FF080021A61204600F0ADF9BAE76FF450
:102C280080721A61204600F0A7F9BCE76FF04002F5
:102C38001A612046FFF73AFFBEE76FF020021A61DB
:102C4800204600F097F9C0E703682C4A90420ED05E
:102C5800B0F1804F0BD0A2F59432904207D002F524
:102C68008062904203D002F59632904203D123F05D
:102C780070034A681343214A90421AD0B0F1804F3A
:102C880017D0A2F59432904213D002F58062904298
:102C98000FD002F5963290420BD002F54062904276
:102CA80007D002F58062904203D002F5806290421C
:102CB80003D123F44073CA68134323F080034A699D
:102CC800134303608B68C3620B6883620B4B9842A3
:102CD8000FD003F5006398420BD003F54063984288
:102CE80007D003F58063984203D003F580639842C8
:102CF80001D10B690363012343617047002C014034
:102D0800B0B110B5044690F83D3063B1022384F8A1
:102D18003D30214651F8040BFFF796FF012384F854
:102D28003D30002010BD80F83C30FDF74FFEEDE748
:102D38000120704710B4846824F47F4442EA0322D7
:102D48000A43224382605DF8044B704790F83C3098
:102D5800012B00F0838010B50446012380F83C3035
:102D6800022380F83D30026890683D4B0340936031
:102D78000B68502B4FD019D8202B65D00DD9302B8C
:102D880067D0402B40D1CA6849682068FFF73BFEEE
:102D980040212068FFF75CFE36E0002B4FD0102B57
:102DA80032D110212068FFF753FE2DE0B3F5805F84
:102DB80023D00ED9B3F5005F26D1CB684A6889685D
:102DC8002068FFF7B7FF2268936843F48043936055
:102DD8001AE0602B29D0702B16D1CB684A68896815
:102DE8002068FFF7A7FF2268936823F4803323F055
:102DF800770343F07703936006E02268936823F42F
:102E0800803323F007039360012384F83D300020CA
:102E180084F83C0010BDCA6849682068FFF7F3FDD4
:102E280050212068FFF714FEEEE7CA684968206859
:102E3800FFF7FBFD60212068FFF70AFEE4E70021A9
:102E48002068FFF705FEDFE720212068FFF700FE76
:102E5800DAE730212068FFF7FBFDD5E7022070474D
:102E68008800FEFF10B50468A26822F070024B6863
:102E7800134323F4803323F007030A681343A36042
:102E88004B68602B24D009D8402B10D0502B0DD183
:102E98000A6989680068FFF7B6FD07E0702B05D15D
:102EA8000B698A68C9680068FFF744FF10BD0368AA
:102EB8001C6A1A6A22F001021A620268936923F0F6
:102EC800F003096943EA0113936103681C62EDE7A3
:102ED8000A6989680068FFF7A8FDE7E738B590F840
:102EE8003C30012B18D00446012580F83C500223C1
:102EF80080F83D30FFF7B6FF2268D36823F040031F
:102F0800D3602268D36823F48043D36084F83D50AB
:102F1800002084F83C0038BD0220FCE790F83C30E3
:102F2800012B22D030B4012380F83C30026853686A
:102F380095680F4CA24203D004F50064A24203D165
:102F480023F470034C68234323F070030C68234375
:102F580025F0800489682143536003689960002341
:102F680080F83C30184630BC70470220704700BFDC
:102F7800002C01407047704770470268136823F4BB
:102F8800907313600268936823F001039360202311
:102F980080F86A30704770477047704708B5406AD4
:102FA8000023A0F85A30A0F85230FFF7F6FF08BD0A
:102FB80038B5044683680269134342691343C269FA
:102FC8001A4301680B6823F4164323F00C031343D8
:102FD8000B600268536823F44053C1680B43536085
:102FE8008369026A1A4301688B6823F430631343C8
:102FF8008B600368954A93420DD0954A93421DD041
:10300800944A934240D0944A934251D0934A93426F
:1030180062D0102521E002F55842126B02F003023B
:10302800032A09D8DFE802F00204066C012514E03F
:10303800042512E0082510E010250EE002F5E6321E
:10304800126B02F44032B2F5003F5BD017D8002A69
:103058005AD0B2F5803F59D10425E269B2F5004F44
:1030680070D0082D00F2EF80DFE815F0B400BF0043
:10307800CB00ED00D700ED00ED00ED00E300B2F568
:10308800403F45D10225E8E702F5E432126B02F42D
:103098004022B2F5002F3DD005D8EAB3B2F5802F13
:1030A8003CD10425D9E7B2F5402F39D10225D4E720
:1030B80002F5E232126B02F44012B2F5001F31D071
:1030C80005D88AB3B2F5801F30D10425C5E7B2F51B
:1030D800401F2DD10225C0E702F5E032126B02F441
:1030E8004002B2F5000F25D005D82AB3B2F5800FFB
:1030F80024D10425B1E7B2F5400F21D10225ACE770
:103108000225AAE70825A8E70025A6E71025A4E7D1
:103118001025A2E70825A0E700259EE710259CE7D3
:1031280010259AE7082598E7002596E7102594E7E3
:10313800102592E7082590E700258EE710258CE7F3
:1031480010258AE7082D42D8DFE805F00517224147
:103158002D414141380000F019FF6268530803EB24
:103168004003B3FBF2F39BB223F00F02C3F3420315
:1031780013432268D360284638BD00F01DFF6268FB
:10318800530803EB4003B3FBF2F39BB20025EBE7D4
:103198006268530803F5740303F51053B3FBF2F3A5
:1031A8009BB20025E0E700F0E3FD6268530803EBFB
:1031B8004003B3FBF2F39BB20025D5E762685308DE
:1031C80003F58033B3FBF2F39BB20025CCE701256E
:1031D8000023C9E700F0DAFE626800EB5203B3FB94
:1031E800F2F322689BB2D360C5E700F0E5FE62689F
:1031F80000EB5203B3FBF2F322689BB2D3600025C5
:10320800B9E761684A0802F5F40202F59052B2FB88
:10321800F1F292B2DA600025ADE700F0A9FD62682C
:1032280000EB5203B3FBF2F322689BB2D360002594
:10323800A1E761684A0802F50042B2FBF1F292B2D6
:10324800DA60002597E7012595E700BF00380140BF
:103258000044004000480040004C0040005000403E
:10326800436A13F0010F06D00268536823F4003351
:10327800816A0B435360436A13F0020F06D0026859
:10328800536823F48033C16A0B435360436A13F0D5
:10329800040F06D00268536823F48023016B0B43A4
:1032A8005360436A13F0080F06D00268536823F48A
:1032B8000043416B0B435360436A13F0100F06D071
:1032C8000268936823F48053816B0B439360436ACD
:1032D80013F0200F06D00268936823F40053C16BE3
:1032E8000B439360436A13F0400F0AD00268536897
:1032F80023F48013016C0B435360036CB3F5801FF8
:103308000BD0436A13F0800F06D00268536823F489
:103318000023816C0B43536070470268536823F4A1
:10332800C003416C0B435360EBE72DE9F8430546B6
:103338000F4616469946DDF820802C68E46937EA7E
:1033480004030CBF01240024B4421FD1B8F1FF3F8D
:10335800F3D0B8F1000F05D000F000FAA0EB090097
:103368004045EAD92A68136823F4D07313602A68A1
:10337800936823F001039360202385F8693085F86A
:103388006A30002385F86830032000E00020BDE89B
:10339800F88330B583B004460023C36600F0DEF935
:1033A800054623681B6813F0080F0ED123681B68B5
:1033B80013F0040F17D1202384F8693084F86A3099
:1033C800002084F8680003B030BD6FF07E4300939E
:1033D800034600224FF400112046FFF7A6FF0028FD
:1033E800E4D00320EFE76FF07E4300932B460022E2
:1033F8004FF480012046FFF798FF0028DBD0032018
:10340800E1E778B310B5044690F869300BB324238C
:1034180084F869302268136823F00103136020469A
:10342800FFF7C6FD012813D0636ABBB92268536849
:1034380023F4904353602268936823F02A0393602F
:103448002268136843F0010313602046FFF7A1FFC9
:1034580010BD80F86830FDF741FBD8E72046FFF73C
:10346800FFFEE3E70120704790F86930DBB2212BBB
:103478002FD1B0F852309BB25BB90268136823F0C1
:10348800800313600268136843F040031360002050
:1034980070478368B3F5805F0ED0C36C5A1CC26452
:1034A80002681B781385B0F852309BB2013B9BB27F
:1034B800A0F85230002070470369002BEDD1C36C8F
:1034C80002681B88C3F308031385C36C0233C36403
:1034D800E9E70220704708B501680A6822F040024F
:1034E8000A60202280F86920FFF755FD002008BDFA
:1034F800B0F85C3090F86A20D2B2222A32D110B5E6
:103508000268928C92B28168B1F5805F0FD0DBB20D
:10351800416D4C1C446513400B70B0F85A309BB297
:10352800013B9BB2A0F85A305BB1002010BD016985
:103538000029ECD1416D13400B80436D0233436584
:10354800EBE70268136823F49073136002689368CA
:1035580023F001039360202380F86A30FFF71CFDF5
:103568000020E3E70268936943F0080393610220AF
:103578007047000038B504460268D369116813F033
:103588000F0505D113F0200F02D011F0200F1BD129
:1035980090682DB110F0010519D111F4907F16D162
:1035A80013F4801F02D010F4800F7BD113F0800F2A
:1035B80003D011F0800F40F0818013F0400F02D04B
:1035C80011F0400F7ED138BDFFF792FFFBE713F0F3
:1035D800010F07D011F4807F04D001201062E26E41
:1035E8000243E26613F0020F07D035B122680220C9
:1035F8001062E26E42F00402E26613F0040F07D094
:1036080035B1226804201062E26E42F00202E266DE
:1036180013F0080F09D011F0200F00D12DB1226846
:1036280008201062E26E0243E266E26E002ACAD007
:1036380013F0200F02D011F0200F21D1E36E13F008
:10364800080F04D123689B6813F0400F24D020464C
:10365800FFF793FC23689A6812F0400F18D09A6815
:1036680022F040029A60636E73B1184A5A63606E22
:1036780000F060FF0028A6D0606E436B9847A2E771
:103688002046FFF735FFD9E72046FFF786FC9AE783
:103698002046FFF782FC96E72046FFF77EFC0023D2
:1036A800E36690E74FF480131362202384F86930AF
:1036B80084F86A30204600F00BF884E72046FFF7CC
:1036C800D3FE80E72046FFF706FF7CE7A52F00081A
:1036D8007047000010B504460E4B18784FF47A7303
:1036E800B3FBF0F30C4A1068B0FBF3F000F0F4FF02
:1036F80068B90F2C01D901200AE0002221464FF0B9
:10370800FF3000F0A9FF054B1C60002000E00120FD
:1037180010BD00BF60000020680000206400002089
:1037280008B5074A136843F010031360032000F03C
:1037380081FF0020FFF7CEFFFDF752FD002008BDF6
:1037480000200240034A1168034B1B780B441360A6
:10375800704700BF701B002060000020014B1868F4
:10376800704700BF701B0020002800F0EB8270B586
:1037780082B00446036813F0010F3BD0B54B5B6879
:1037880003F00C03042B1ED0B24B5B6803F00C0350
:10379800082B13D06368B3F5803F68D0002B40F046
:1037A800928003F1804303F504331A6822F48032CF
:1037B8001A601A6822F480221A605DE0A54B5B68E3
:1037C80013F4803FE6D04FF4003393FAA3F3A14BF0
:1037D80019684FF4003393FAA3F3B3FA83F303F0B1
:1037E8001F03012202FA03F30B4203D06368002B84
:1037F80000F0AA82236813F0020F00F0C580954BF1
:103808005B6813F00C0F00F09C80924B5B6803F030
:103818000C03082B00F08F802369002B00F0F28046
:10382800012292FAA2F3B3FA83F303F1845303F566
:1038380084139B001A60FFF791FF0546022393FA51
:10384800A3F3844B1968022393FAA3F3B3FA83F31F
:1038580003F01F03012202FA03F30B4240F0C38076
:10386800FFF77CFF401B0228E8D9032075E2794A5C
:10387800136843F480331360764AD36A23F00F0346
:10388800A1680B43D3626368002B36D0FFF766FF4D
:1038980005464FF4003393FAA3F36E4B19684FF4BF
:1038A800003393FAA3F3B3FA83F303F01F0301225F
:1038B80002FA03F30B429DD1FFF750FF401B642827
:1038C800E7D9032049E2B3F5A02F09D0614B1A6864
:1038D80022F480321A601A6822F480221A60CBE738
:1038E80003F18043A3F53C331A6842F480221A603E
:1038F8001A6842F480321A60BEE7FFF72FFF0546C8
:103908004FF4003393FAA3F3524B19684FF4003382
:1039180093FAA3F3B3FA83F303F01F03012202FA25
:1039280003F30B423FF466AFFFF718FF401B642810
:10393800E6D9032011E2474B5B6813F4803F7FF41C
:103948006BAF022393FAA3F3424B1968022393FA4D
:10395800A3F3B3FA83F303F01F03012202FA03F37C
:103968000B4203D02369934240F0F0813948036841
:1039780023F0F8036169F82292FAA2F2B2FA82F20D
:1039880001FA02F213430360236813F0080F00F0F2
:103998008D80A369002B61D0012191FAA1F2B2FABE
:1039A80082F22D4B13449B001960FFF7D7FE0546A2
:1039B800022393FAA3F293FAA3F293FAA3F2254A05
:1039C800516A93FAA3F3B3FA83F303F01F030122B6
:1039D80002FA03F30B4269D1FFF7C0FE401B02282D
:1039E800E6D90320B9E11B48036823F0F8036169AD
:1039F800F82292FAA2F2B2FA82F201FA02F2134320
:103A08000360C1E7012393FAA3F3B3FA83F303F145
:103A1800845303F584139B0000221A60FFF79EFE6F
:103A28000546022393FAA3F30A4B1968022393FA73
:103A3800A3F3B3FA83F303F01F03012202FA03F39B
:103A48000B42A1D0FFF78AFE401B0228E9D90320C8
:103A580083E100BF0010024020819010012292FAF9
:103A6800A2F2B2FA82F2BF4B13449B0000221A6002
:103A7800FFF774FE0546022393FAA3F293FAA3F222
:103A880093FAA3F2B84A516A93FAA3F3B3FA83F309
:103A980003F01F03012202FA03F30B4206D0FFF7DB
:103AA8005DFE401B0228E6D9032056E1236813F087
:103AB800040F00F0A980AC4BDB6913F0805F0BD1D9
:103AC800A94BDA6942F08052DA61DB6903F080536E
:103AD8000193019B012500E00025A44B1B6813F40A
:103AE800807F10D0E368012B21D063BB03F18043B2
:103AF80003F504331A6A22F001021A621A6A22F0E4
:103B080004021A6218E0994A136843F48073136038
:103B1800FFF724FE0646954B1B6813F4807FE1D11E
:103B2800FFF71CFE801B6428F5D9032015E18E4A97
:103B3800136A43F001031362E368002B3CD0FFF7DC
:103B48000DFE06462EE0052B09D0874B1A6A22F097
:103B580001021A621A6A22F004021A62ECE7824B26
:103B68001A6A42F004021A621A6A42F001021A62E0
:103B7800E2E7022393FAA3F37B4B596A022393FAF1
:103B8800A3F3B3FA83F303F01F03012202FA03F34A
:103B9800194238D1FFF7E2FD801B41F28833984281
:103BA80000F2D680022393FAA3F293FAA3F3002B30
:103BB800DFD06D4B196AE1E7FFF7D0FD064618E044
:103BC800022393FAA3F3684B596A022393FAA3F3E7
:103BD800B3FA83F303F01F03012202FA03F3194235
:103BE80011D0FFF7BBFD801B41F28833984200F2E9
:103BF800B180022393FAA3F293FAA3F3002BDFD048
:103C0800594B196AE1E7B5BBE369002B00F0A480C2
:103C1800554A526802F00C02082A00F0A080022BD4
:103C28002FD04FF0807393FAA3F3B3FA83F303F121
:103C3800845303F584139B0000221A60FFF78EFD5E
:103C480004464FF0007393FAA3F3474B19684FF0FB
:103C5800007393FAA3F3B3FA83F303F01F0301226B
:103C680002FA03F319426BD0FFF778FD001B022814
:103C7800E7D9032071E03C4AD36923F08053D3612C
:103C8800C2E74FF0807393FAA3F3B3FA83F303F117
:103C9800845303F584139B0000221A60FFF75EFD2E
:103CA80005464FF0007393FAA3F32F4B19684FF0B2
:103CB800007393FAA3F3B3FA83F303F01F0301220B
:103CC80002FA03F3194206D0FFF748FD401B022809
:103CD800E7D9032041E024494B6823F47413626A4E
:103CE800206A024313434B604FF0807393FAA3F3A7
:103CF800B3FA83F303F1845303F584139B00012281
:103D08001A60FFF72BFD04464FF0007393FAA3F3F4
:103D1800154B19684FF0007393FAA3F3B3FA83F3C2
:103D280003F01F03012202FA03F3194206D1FFF739
:103D380015FD001B0228E7D903200EE000200CE047
:103D480000200AE001207047012006E0012004E07D
:103D5800032002E0032000E0002002B070BD012033
:103D6800FBE700BF20819010001002400070004067
:103D7800164B5B6803F00C02082A01D01448704700
:103D880003F470114FF4701292FAA2F2B2FA82F2AE
:103D980021FA02F20F49885C0C4AD26A02F00F023B
:103DA8000F2191FAA1F1B1FA81F1CA400A498A5C5E
:103DB80013F4803F05D0064BB3FBF2F300FB03F08E
:103DC8007047064B03FB00F0704700BF001002402D
:103DD80000127A00C4520008D452000800093D00BD
:103DE800002800F0BD8070B50D460446604B1B6886
:103DF80003F007038B420BD25D4A136823F00703D5
:103E08000B431360136803F007038B4240F0AA804A
:103E1800236813F0020F06D0564A536823F0F003C4
:103E2800A1680B435360236813F0010F5AD06368ED
:103E3800012B2DD0022B40D0022292FAA2F24D4A39
:103E48001068022292FAA2F2B2FA82F202F01F027B
:103E5800012101FA02F2104200F0868045494A68C1
:103E680022F0030213434B60FFF778FC0646414BF0
:103E78005B6803F00C036268B3EB820F32D0FFF784
:103E88006DFC801B41F288339842F0D9032066E02C
:103E98004FF4003292FAA2F2364A10684FF4003218
:103EA80092FAA2F2B2FA82F202F01F02012101FA9A
:103EB80002F20242D2D1012051E04FF0007292FA90
:103EC800A2F22C4A10684FF0007292FAA2F2B2FAEB
:103ED80082F202F01F02012101FA02F21042BDD162
:103EE80001203CE0224B1B6803F00703AB420AD9D0
:103EF8001F4A136823F007032B431360136803F06A
:103F08000703AB4232D1236813F0040F06D0194AD5
:103F1800536823F4E063E1680B435360236813F0AC
:103F2800080F07D0134A536823F46053216943EA02
:103F3800C1035360FFF71CFF0E4B5B6803F0F003EF
:103F4800F02292FAA2F2B2FA82F2D3400A4AD35C81
:103F5800D8400A4B18600020FFF7BCFB002070BD5A
:103F6800012070470120FAE70120F8E70120F6E771
:103F78000020024000100240E452000868000020BF
:103F8800014B1868704700BF6800002008B5FFF7AC
:103F9800F7FF074B5B6803F4E0634FF4E06292FAC3
:103FA800A2F2B2FA82F2D340024AD35CD84008BDEA
:103FB80000100240F452000808B5FFF7E1FF074B74
:103FC8005B6803F460534FF4605292FAA2F2B2FABB
:103FD80082F2D340024AD35CD84008BD00100240A8
:103FE800F4520008F0B583B00446036813F4803F28
:103FF80048D0914BDB6913F0805F40F0D4808E4B42
:10400800DA6942F08052DA61DB6903F08053019388
:10401800019B0125894B1B6813F4807F00F0C58044
:10402800854B1B6A13F4407322D0626802F4407215
:104038009A421DD08048016A21F440764FF48033BB
:1040480093FAA3F2B2FA82F27D4F3A4492004FF00B
:10405800010CC2F800C093FAA3F3B3FA83F33B440C
:104068009B0000221A60066211F0010F40F0B28036
:10407800714A136A23F4407361680B431362002D7D
:1040880040F0CF80236813F0010F06D06A4A136B03
:1040980023F00303A1680B431363236813F0020F93
:1040A80006D0654A136B23F44033E1680B4313636E
:1040B800236813F0040F06D05F4A136B23F44023E0
:1040C80021690B431363236813F0200F06D05A4A63
:1040D800136B23F01003E1690B431363236813F494
:1040E800003F06D0544A536823F48003A16B0B4366
:1040F8005360236813F0400F06D04F4A136B23F028
:104108002003216A0B431363236813F0080F06D0BA
:10411800494A136B23F4401361690B431363236803
:1041280013F0100F06D0444A136B23F44003A1691F
:104138000B431363236813F4007F06D03E4A536889
:1041480023F40003E16A0B435360236813F0800FE4
:1041580006D0394AD36A23F4F873616A0B43D362F1
:10416800236813F4807F06D0334AD36A23F4785344
:10417800A16A0B43D362236813F4805F06D02E4AEA
:10418800136B23F48073216B0B431363236813F4BD
:10419800005F4DD0284A136B23F40073616B0B4307
:1041A8001363002045E0002534E7244A136843F4EC
:1041B80080731360FFF7D2FA0646204B1B6813F48E
:1041C800807F7FF42DAFFFF7C9FA801B6428F4D9EC
:1041D80003202EE0FFF7C2FA064618E0022393FAFE
:1041E800A3F3154B596A022393FAA3F3B3FA83F3A3
:1041F80003F01F03012202FA03F30B427FF438AFE6
:10420800FFF7ACFA801B41F2883398420ED802239C
:1042180093FAA3F293FAA3F3002BDFD0064B196AA3
:10422800E1E7D36923F08053D3612BE7032000E053
:10423800002003B0F0BD00BF001002400070004035
:1042480000819010F0B482B0002236E0042400E02F
:104258000024B4403C4302355B4E46F825405B4C95
:104268002568DC4325EA03064F6817F4803F01D030
:1042780043EA0506554D2E606D6804EA05064F6849
:1042880017F4003F01D043EA0506504D6E60AD6853
:1042980004EA05064F6817F4801F01D043EA0506B3
:1042A8004A4DAE60ED682C404E6816F4001F01D0F0
:1042B80043EA0504454BDC6001320B6833FA02F42B
:1042C8007FD0012494402340F6D04D68022D01D0C0
:1042D800122D10D1D608083650F826C002F007056E
:1042E800AF000F25BD402CEA050C0D69BD4045EA1D
:1042F8000C0540F82650D0F800C056000325B540FC
:10430800EF432CEA050C4D6805F00305B54045EA76
:104318000C0505604D6805F1FF3CBCF1010F03D9A0
:10432800112D01D0122D10D1856807EA050CCD6832
:10433800B54045EA0C058560456825EA04044D68E2
:10434800C5F30015954025434560C46827408C682F
:10435800B4403C43C4604C6814F0805FACD01C4C43
:10436800A56945F00105A561A46904F0010401945B
:10437800019C9508AE1C144C54F8267002F00304F6
:10438800A6000F24B44027EA0407B0F1904F3FF489
:104398005FAF104CA0420ED004F58064A0420CD050
:1043A80004F58064A0420AD004F58064A0423FF47A
:1043B8004DAF05244DE701244BE7022449E70324C8
:1043C80047E702B0F0BC704700000140000401401C
:1043D80000100240000400480369194201D001207E
:1043E8007047002070470AB1816170478162704749
:1043F800436959404161704770B4066CC56B01242C
:10440800B4406C60046863604368102B05D003688F
:1044180099600368DA6070BC704703689A60036843
:10442800D960F8E702680C4B9A420AD80B4B134440
:104438000B4AA2FB03231B099B000364094BC363BC
:104448007047094B1344064AA2FB03231B099B0030
:104458000364064BC363704707040240F8FFFDBFBF
:10446800CDCCCCCC00000240F8FBFDBF00040240DC
:1044780020B310B50446022380F8213001680A6889
:1044880022F47F5222F03002436880680343E068D8
:1044980003432069034360690343A0690343E06958
:1044A800034313430B602046FFF7BCFF0020A063C3
:1044B800012384F8213084F8200010BD01207047C2
:1044C80038B5044690F82000012831D0012084F83E
:1044D800200094F82100012804D0002384F820301B
:1044E800022038BD022084F821000020A06325683E
:1044F800286820F0010028602046FFF77DFFE36A66
:104508005BB12268136843F00E03136022681368D6
:1045180043F0010313600020E3E72268136843F0C7
:104528000A0313602268136823F004031360EDE79D
:104538000220D6E708B590F82130022B03D00423D7
:104548008363012008BD0268136823F00E0313601B
:104558000268136823F001031360036CC16B012226
:1045680002FA03F34B6080F82120002380F8203002
:10457800436B13B198470020E4E70020E2E738B521
:10458800C36B1A6804682568016C04238B401342C6
:1045980013D015F0040F10D0236813F0200F03D1A7
:1045A800236823F004032360016CC26B04238B404F
:1045B8005360C36A03B1984738BD02238B40134246
:1045C8001AD015F0020F17D0236813F0200F06D168
:1045D800236823F00A032360012380F82130016C4B
:1045E800C26B02238B405360002380F82030836A1B
:1045F800002BE1D09847DFE7082303FA01F11142C5
:10460800DAD015F0080FD7D0236823F00E03236003
:10461800026CC16B012303FA02F24A60836380F8DB
:104628002130002380F82030036B002BC4D098473A
:10463800C2E70000074AD36823F4E0631B041B0C9D
:10464800000200F4E060034343F0BF6343F4003327
:10465800D360704700ED00E030B4174BDB68C3F35C
:104668000223C3F10704042C28BF04241D1D062DB2
:1046780018D9033B4FF0FF3505FA04F421EA040189
:10468800994005FA03F322EA0303194300280BDBD8
:104698000901C9B200F1604000F5614080F80013DB
:1046A80030BC70470023E5E700F00F000901C9B2EC
:1046B800024B1954F4E700BF00ED00E014ED00E0F0
:1046C80000F01F02400901239340024A42F82030BB
:1046D800704700BF00E100E00138B0F1807F0AD2E6
:1046E800064B5860064AF02182F823100020986093
:1046F80007221A6070470120704700BF10E000E0F1
:1047080000ED00E01549D1F8883043F47003C1F892
:104718008830134B1A6842F001021A605868114A2F
:1047280002405A601A6822F0847222F480321A60B9
:104738001A6822F480221A605A6822F4FE025A602B
:10474800DA6A22F00F02DA62186B074A02401A632B
:1047580000229A604FF000638B60704700ED00E024
:10476800001002400CC07FF8CCFC00FF98B108B5DF
:104778000346D0F8140210B10020C3F8140209B19E
:10478800C3F81012012183F8FC111A701846FCF7BF
:10479800E3FA002008BD0220704719B1C0F81412CE
:1047A800002070470220704708B5FCF717FB00206F
:1047B80008BD08B5D0F814322BB11B68984700B96A
:1047C80008BD0220FCE70220FAE708B5D0F8143249
:1047D8005B689847002008BD38B5044600F50275A7
:1047E800284600F00DF90123C4F8F431B4F80E326C
:1047F800C4F8F83194F8081201F01F03012B0ED009
:10480800022B11D02BB101F080012046FCF701FBEF
:1048180003E02946204600F06CFA002038BD2946FE
:10482800204600F08AFAF8E72946204600F0A0FA68
:10483800F3E710B5044629BB1346D0F8F421032A40
:1048480001D0002010BDD0F80C11D0F810219142F1
:104858000BD8D0F814321B691BB190F8FC21032A3D
:104868000ED0204600F05BFBEBE7891AC0F80C116C
:104878008A4228BF0A4692B2194600F048FBE0E790
:104888009847EEE70A46D0F814329B69002BD8D037
:1048980090F8FC110329D4D111469847D1E710B5F7
:1048A8000446002947D11346D0F8F421022A05D03E
:1048B80094F80032012B3AD0002010BDC169026A79
:1048C800914217D88169B1FBF2F302FB13132BB99C
:1048D8008A4203D8D0F8F831994218D3D4F8143260
:1048E800DB681BB194F8FC21032A1DD0204600F098
:1048F80021FBDDE78A1AC26192B2194600F0F0FA8C
:1049080000231A4619462046FCF7BAFAD0E70022D7
:10491800114600F0E5FA0021C4F8F8110B460A46E2
:104928002046FCF7ADFAC3E720469847DEE70023A8
:1049380084F80032C0E70A46D0F814325B69002BCD
:10494800BAD090F8FC110329B6D111469847B3E7BD
:1049580038B50446402300221146FCF747FA4025A3
:10496800C4F810512B46002280212046FCF73EFA5D
:104978002562012384F8FC31D4F818322BB1D4F81D
:1049880014325B68217920469847002038BD0174AD
:104998000020704790F8FC3180F8FD31042380F83E
:1049A800FC310020704790F8FD3180F8FC31002080
:1049B800704708B590F8FC31032B01D0002008BDE2
:1049C800D0F81432DB69002BF8D09847F6E7034695
:1049D80000201A781AB10130C0B20133F9E77047E4
:1049E8004B88012B00D0704710B50446C0F804323C
:1049F800D0F814329B689847204600F090FA10BD12
:104A08000B7803704B7843708B78CA7803EB0223DA
:104A180043800B794A7903EB022383808B79CA7927
:104A280003EB0223C380704710B504468021FCF7CE
:104A3800F0F900212046FCF7ECF910BD30B583B041
:104A480004460D464A88130A013B062B00F2818072
:104A5800DFE803F00413277F7F637000D0F810327B
:104A68001B680DF10601007C9847BDF8062012B1BD
:104A7800EB88002B71D103B030BD037C43B9D0F86B
:104A880014329B6A0DF10600984702234370ECE745
:104A9800D0F81432DB6A0DF1060098470223437000
:104AA800E3E7D2B2052A34D8DFE802F0030B131B80
:104AB800232BD0F810325B680DF10601007C984773
:104AC800D3E7D0F810329B680DF10601007C9847B7
:104AD800CBE7D0F81032DB680DF10601007C98476F
:104AE800C3E7D0F810321B690DF10601007C984726
:104AF800BBE7D0F810325B690DF10601007C9847DE
:104B0800B3E7D0F810329B690DF10601007C984795
:104B1800ABE72946FFF788FFADE7037C33B9D0F848
:104B280014325B6B0DF1060098479EE72946FFF7A4
:104B38007BFFA0E7037C43B9D0F814321B6B0DF15F
:104B480006009847072343708FE72946FFF76CFF55
:104B580091E72946FFF768FF8DE79A4228BF1A4672
:104B6800ADF806200146204600F0ADF983E738B5D8
:104B780004468B88E3B9CB88D3B98D7805F07F05D7
:104B880090F8FC31032B0CD080F8FE512946FCF735
:104B980067F9204600F0C3F935B1022384F8FC31E7
:104BA80009E0FFF741FF06E0012384F8FC3102E049
:104BB8002046FFF739FF38BD38B504460D468978D9
:104BC800254B1970012909D890F8FC31022B09D01E
:104BD800032B1CD02946FFF727FF02E02946FFF7E1
:104BE80023FF38BD81B14160032380F8FC31FFF712
:104BF800E0FD022803D0204600F091F9F1E72946AC
:104C08002046FFF711FFECE700F089F9E9E789B1E1
:104C1800436899421DD0D9B2FFF7D7FD0E4B1978DA
:104C280061602046FFF7C5FD02280DD0204600F040
:104C380076F9D6E7022380F8FC314160FFF7C5FD1D
:104C4800204600F06CF9CCE729462046FFF7ECFE39
:104C5800C7E700F064F9C4E78304002008B5CB88EF
:104C6800012B08D190F8FC31022B07D0032B0DD073
:104C7800FFF7DAFE01E0FFF7D7FE08BD0146002383
:104C880041F8083F012200F01EF9F6E70122011D54
:104C980000F019F9F1E708B590F8FC31023B012B57
:104CA8000CD80123C360D0F804320BB10323C360CE
:104CB800022200F10C0100F006F908BDFFF7B4FE6E
:104CC800FBE710B5044690F8FC31023B012B0DD8E8
:104CD8004B88012B0CD10023C0F80432D0F81432D1
:104CE8009B689847204600F01AF901E0FFF79CFE00
:104CF80010BD08B54B78092B1CD8DFE803F0121853
:104D08001B151B09051B0F0CFFF798FE002008BD9B
:104D1800FFF72DFFFAE7FFF74FFFF7E7FFF79EFFD3
:104D2800F4E7FFF7B8FFF1E7FFF75AFEEEE7FFF702
:104D3800C8FFEBE7FFF778FEE8E738B504460D460D
:104D480090F8FC31032B0FD10B79012B09D8D0F83F
:104D580014329B689847EB8843B9204600F0DFF887
:104D680004E0FFF761FE01E0FFF75EFE002038BDBA
:104D780038B505460C468A880B7803F06003202B6B
:104D880009D0D1B26378012B2DD0032B08D0002B8A
:104D98004DD0002038BDD0F814329B689847F8E70A
:104DA80090F8FC31022B05D0032B0AD02146FFF7DF
:104DB8003BFEEEE70029ECD08029EAD0FCF729F881
:104DC800E7E7638813B909B1802909D1D5F8143206
:104DD8009B68214628469847284600F0A0F8D8E75F
:104DE800FCF717F8F2E790F8FC31022B05D0032BFB
:104DF8000AD02146FFF718FECBE70029C9D0802941
:104E0800C7D0FCF706F8C4E76388002BC1D111F0BE
:104E18007F0F03D1284600F082F8BAE7FCF701F8C3
:104E2800D5F814329B68214628469847F2E790F84F
:104E3800FC31022B05D0032B09D02146FFF7F4FDE6
:104E4800A7E711F07F0FA4D0FBF7E3FFA1E712F06B
:104E5800800F11D101F07F04103400EB04140434E6
:104E68002846FBF7E6FF70B10123236002222146A2
:104E7800284600F028F88CE701F07F04013400EBA5
:104E880004140434ECE700232360EFE7D0B170B5D5
:104E98000D4616460446FFF79AFD431C5B009BB27D
:104EA80033802B7003236B70022307E001345A1CF4
:104EB800D2B2E8540233DBB20021A954207800288A
:104EC800F4D170BD704710B513460222C0F8F42122
:104ED8008361C3610A460021FBF7CAFF002010BDA9
:104EE80008B513460A460021FBF7C2FF002008BD9B
:104EF80010B513460322C0F8F421C0F80831C0F8F1
:104F08000C310A460021FBF7BBFF002010BD08B595
:104F180013460A460021FBF7B3FF002008BD08B579
:104F28000423C0F8F43100231A461946FBF7A0FF02
:104F3800002008BD08B50523C0F8F43100231A463F
:104F48001946FBF79DFF002008BDD0F818321BB1A9
:104F58000020C3F8140270470220704710B5D0F83B
:104F68001842D0F81C325BB194F80002FF2807D031
:104F78009B6894F8012221469847FF2384F8003261
:104F8800002010BD4323038000487047A400002080
:104F98004323038000487047E80000204323038030
:104FA80000487047380100200A23038000487047F2
:104FB8002C01002038B50446D0F81852FBF768FFDA
:104FC800C5F80C02D4F818324BB1D4F81C32DB689F
:104FD80005F50371D5F804029847002038BD022072
:104FE800FCE7000070B505460C46D0F818620B784F
:104FF80013F0600224D0202A25D1CA88CAB113F040
:10500800800F0BD0D0F81C329B68314660789847E7
:10501800E28831462846FFF756FF14E04B7886F8B9
:105028000032CB8886F80132CA883146FFF760FF24
:1050380009E0D0F81C329B6800224878984702E0C3
:105048004B780A2B01D0002070BD01220149FFF7DF
:105058003AFFF8E78404002010B504468121FBF7E5
:10506800D0FE01212046FBF7CCFE82212046FBF72B
:10507800C8FED4F8183253B1D4F81C325B6898478C
:10508800D4F81802FBF70EFF0023C4F818320020EA
:1050980010BD70B50446037C7BBB4FF4007302223D
:1050A8008121FBF7A3FE4FF4007302220121204661
:1050B800FBF79CFE0823032282212046FBF796FE7D
:1050C8004FF40770FBF7EAFE0546C4F8180248B328
:1050D800D4F81C321B6898470023C5F81432C5F869
:1050E8001832267CAEB94FF40073D5F8042201219A
:1050F8002046FBF7C5FE304670BD402302228121C1
:10510800FBF774FE4023022201212046FBF76EFEC6
:10511800D0E74023D5F8042201212046FBF7B0FE52
:105128000026E8E70126E6E719B1C0F81C120020BE
:10513800704702207047D0F81832C3F80812C3F835
:10514800102200207047D0F81832C3F8041200204B
:105158007047D0F818228AB108B5D2F814320BB1CA
:10516800012008BD0123C2F81432B2F81032D2F877
:1051780008228121FBF77CFE0020F2E7022070471D
:10518800D0F8182292B108B5037C43B94FF40073E4
:10519800D2F804220121FBF773FE002008BD40234A
:1051A800D2F804220121FBF76BFEF6E702207047D4
:1051B800DFF834D0002103E00C4B5B584350043136
:1051C8000B480C4B42189A42F6D30B4A02E00023D4
:1051D80042F8043B094B9A42F9D3FFF793FA00F0DF
:1051E80011F8FBF72BF8FEE700A000200453000895
:1051F800000000207C0100207C010020741B00209E
:10520800FEE7000070B50D4D0D4C641BA410002680
:10521800A64209D10B4D0C4C00F020F8641BA410D9
:105228000026A64205D170BD55F8043B98470136C3
:10523800EEE755F8043B98470136F2E7FC520008C0
:10524800FC520008FC5200080053000802440346C0
:10525800934200D1704703F8011BF9E7F8B500BF86
:10526800F8BC08BC9E467047F8B500BFF8BC08BC3F
:045278009E46704797
:10527C0053544D3332205669727475616C20436FF0
:10528C006D506F727400000053544D6963726F65FA
:10529C006C656374726F6E696373000043444320E2
:1052AC00436F6E666967000043444320496E746522
:1052BC0072666163650000000203040506070809B5
:1052CC000A0B0C0D0E0F1010010203040506070843
:1052DC00090A0B0C0D0E0F1000000000000000005E
:1052EC000102030406070809000000000102030480
:0452FC00AD010008F8
:045300008901000817
:10530400B10E0008BD0E00086D0F0008490F00081B
:10531400350F0008890F0008AD0F000812010002C4
:10532400020200408304405700020102030100000E
:10533400040309041A030000000000000000000038
:105344000000000000000000000000000000000059
:10535400F50F0008D10F0008D50F0008D90F000879
:10536400010000001000000000127A009B500008A9
:1053740061500008ED4F000800000000654F000870
:10538400534F0008BD4F000800000000000000005B
:1053940000000000994F00088D4F0008A54F000839
:1053A400B14F000809024300020100C032090400A1
:1053B400000102020100052400100105240100017E
:1053C40004240202052406000107058203080010D4
:1053D40009040100020A0000000705010240000060
:1053E400070581024000000009024300020100C0D9
:1053F4003209040000010202010005240010010525
:105404002401000104240202052406000107058288
:105414000308001009040100020A00000007050146
:105424000200020007058102000200000A060002D1
:10543400000000400100000009074300020104C00D
:1054440032090400000102020100052400100105D4
:105454002401000104240202052406000107058238
:10546400030800FF09040100020A00000007050107
:0C5474000240000007058102400000001B
:04000005080051B9E5
:00000001FF
